{
  "_format": "hh-sol-artifact-1",
  "contractName": "NFTInu",
  "sourceName": "contracts/NFTInu.sol",
  "abi": [
    {
      "anonymous": false,
      "inputs": [
        {
          "indexed": false,
          "internalType": "uint256",
          "name": "listingId",
          "type": "uint256"
        }
      ],
      "name": "ListNFT",
      "type": "event"
    },
    {
      "anonymous": false,
      "inputs": [
        {
          "indexed": false,
          "internalType": "uint256",
          "name": "listingId",
          "type": "uint256"
        }
      ],
      "name": "TerminateRental",
      "type": "event"
    },
    {
      "inputs": [
        {
          "internalType": "uint256",
          "name": "listingId",
          "type": "uint256"
        }
      ],
      "name": "borrow",
      "outputs": [],
      "stateMutability": "payable",
      "type": "function"
    },
    {
      "inputs": [],
      "name": "getListingCount",
      "outputs": [
        {
          "internalType": "uint256",
          "name": "",
          "type": "uint256"
        }
      ],
      "stateMutability": "view",
      "type": "function"
    },
    {
      "inputs": [
        {
          "internalType": "uint256",
          "name": "tokenId",
          "type": "uint256"
        },
        {
          "internalType": "address",
          "name": "tokenAddress",
          "type": "address"
        },
        {
          "internalType": "uint16",
          "name": "duration",
          "type": "uint16"
        },
        {
          "internalType": "uint16",
          "name": "dailyInterestRate",
          "type": "uint16"
        },
        {
          "internalType": "uint256",
          "name": "collateralRequired",
          "type": "uint256"
        }
      ],
      "name": "listNFT",
      "outputs": [],
      "stateMutability": "nonpayable",
      "type": "function"
    },
    {
      "inputs": [
        {
          "internalType": "uint256",
          "name": "listingId",
          "type": "uint256"
        }
      ],
      "name": "returnNFT",
      "outputs": [],
      "stateMutability": "nonpayable",
      "type": "function"
    },
    {
      "inputs": [
        {
          "internalType": "uint256",
          "name": "listingId",
          "type": "uint256"
        }
      ],
      "name": "terminateRental",
      "outputs": [],
      "stateMutability": "nonpayable",
      "type": "function"
    },
    {
      "inputs": [
        {
          "internalType": "uint256",
          "name": "listingId",
          "type": "uint256"
        }
      ],
      "name": "unListNFT",
      "outputs": [],
      "stateMutability": "nonpayable",
      "type": "function"
    },
    {
      "inputs": [],
      "name": "viewAllListings",
      "outputs": [
        {
          "components": [
            {
              "internalType": "uint256",
              "name": "id",
              "type": "uint256"
            },
            {
              "internalType": "uint256",
              "name": "tokenId",
              "type": "uint256"
            },
            {
              "internalType": "address",
              "name": "tokenAddress",
              "type": "address"
            },
            {
              "internalType": "address payable",
              "name": "lenderAddress",
              "type": "address"
            },
            {
              "internalType": "uint16",
              "name": "duration",
              "type": "uint16"
            },
            {
              "internalType": "uint16",
              "name": "dailyInterestRate",
              "type": "uint16"
            },
            {
              "internalType": "uint256",
              "name": "collateralRequired",
              "type": "uint256"
            },
            {
              "components": [
                {
                  "internalType": "address payable",
                  "name": "borrowerAddress",
                  "type": "address"
                },
                {
                  "internalType": "uint256",
                  "name": "rentedAt",
                  "type": "uint256"
                }
              ],
              "internalType": "struct NFTInuStorage.Rental",
              "name": "rental",
              "type": "tuple"
            }
          ],
          "internalType": "struct NFTInuStorage.Listing[]",
          "name": "",
          "type": "tuple[]"
        }
      ],
      "stateMutability": "view",
      "type": "function"
    },
    {
      "inputs": [],
      "name": "viewOwnedOngoingListingsAndRentals",
      "outputs": [
        {
          "components": [
            {
              "internalType": "uint256",
              "name": "id",
              "type": "uint256"
            },
            {
              "internalType": "uint256",
              "name": "tokenId",
              "type": "uint256"
            },
            {
              "internalType": "address",
              "name": "tokenAddress",
              "type": "address"
            },
            {
              "internalType": "address payable",
              "name": "lenderAddress",
              "type": "address"
            },
            {
              "internalType": "uint16",
              "name": "duration",
              "type": "uint16"
            },
            {
              "internalType": "uint16",
              "name": "dailyInterestRate",
              "type": "uint16"
            },
            {
              "internalType": "uint256",
              "name": "collateralRequired",
              "type": "uint256"
            },
            {
              "components": [
                {
                  "internalType": "address payable",
                  "name": "borrowerAddress",
                  "type": "address"
                },
                {
                  "internalType": "uint256",
                  "name": "rentedAt",
                  "type": "uint256"
                }
              ],
              "internalType": "struct NFTInuStorage.Rental",
              "name": "rental",
              "type": "tuple"
            }
          ],
          "internalType": "struct NFTInuStorage.Listing[]",
          "name": "",
          "type": "tuple[]"
        }
      ],
      "stateMutability": "view",
      "type": "function"
    },
    {
      "inputs": [],
      "name": "viewRentedListings",
      "outputs": [
        {
          "components": [
            {
              "internalType": "uint256",
              "name": "id",
              "type": "uint256"
            },
            {
              "internalType": "uint256",
              "name": "tokenId",
              "type": "uint256"
            },
            {
              "internalType": "address",
              "name": "tokenAddress",
              "type": "address"
            },
            {
              "internalType": "address payable",
              "name": "lenderAddress",
              "type": "address"
            },
            {
              "internalType": "uint16",
              "name": "duration",
              "type": "uint16"
            },
            {
              "internalType": "uint16",
              "name": "dailyInterestRate",
              "type": "uint16"
            },
            {
              "internalType": "uint256",
              "name": "collateralRequired",
              "type": "uint256"
            },
            {
              "components": [
                {
                  "internalType": "address payable",
                  "name": "borrowerAddress",
                  "type": "address"
                },
                {
                  "internalType": "uint256",
                  "name": "rentedAt",
                  "type": "uint256"
                }
              ],
              "internalType": "struct NFTInuStorage.Rental",
              "name": "rental",
              "type": "tuple"
            }
          ],
          "internalType": "struct NFTInuStorage.Listing[]",
          "name": "",
          "type": "tuple[]"
        }
      ],
      "stateMutability": "view",
      "type": "function"
    }
  ],
  "bytecode": "0x6080604052600160005534801561001557600080fd5b50613177806100256000396000f3fe6080604052600436106100865760003560e01c8063b0cd2aa011610059578063b0cd2aa014610133578063bf1b2c3a1461015c578063c5ebeaec14610187578063e522a8a1146101a3578063f9217419146101ce57610086565b80630ca2f1681461008b5780637ac0da04146100b457806381fab025146100dd57806387ed92d714610108575b600080fd5b34801561009757600080fd5b506100b260048036038101906100ad9190612398565b6101f7565b005b3480156100c057600080fd5b506100db60048036038101906100d691906123c1565b6101fa565b005b3480156100e957600080fd5b506100f26102ef565b6040516100ff9190612879565b60405180910390f35b34801561011457600080fd5b5061011d6105bb565b60405161012a9190612a5b565b60405180910390f35b34801561013f57600080fd5b5061015a60048036038101906101559190612398565b6105ca565b005b34801561016857600080fd5b50610171610928565b60405161017e9190612879565b60405180910390f35b6101a1600480360381019061019c9190612398565b610e34565b005b3480156101af57600080fd5b506101b86110cd565b6040516101c59190612879565b60405180910390f35b3480156101da57600080fd5b506101f560048036038101906101f09190612398565b6115d1565b005b50565b6000604051806101000160405280600081526020018781526020018673ffffffffffffffffffffffffffffffffffffffff1681526020013373ffffffffffffffffffffffffffffffffffffffff1681526020018561ffff1681526020018461ffff1681526020018381526020016040518060400160405280600073ffffffffffffffffffffffffffffffffffffffff168152602001600081525081525090506102a281611986565b6102ab81611b22565b507ffb3c9be84e060b16665f2ed71b9e1f625d2104e176926bbe34b79f4382dbb44881600001516040516102df9190612a5b565b60405180910390a1505050505050565b606060006102fb611cd1565b90506000815167ffffffffffffffff811115610340577f4e487b7100000000000000000000000000000000000000000000000000000000600052604160045260246000fd5b60405190808252806020026020018201604052801561037957816020015b6103666122aa565b81526020019060019003908161035e5790505b50905060005b82518110156105b2576103d18382815181106103c4577f4e487b7100000000000000000000000000000000000000000000000000000000600052603260045260246000fd5b6020026020010151611dd4565b6040518061010001604052908160008201548152602001600182015481526020016002820160009054906101000a900473ffffffffffffffffffffffffffffffffffffffff1673ffffffffffffffffffffffffffffffffffffffff1673ffffffffffffffffffffffffffffffffffffffff1681526020016003820160009054906101000a900473ffffffffffffffffffffffffffffffffffffffff1673ffffffffffffffffffffffffffffffffffffffff1673ffffffffffffffffffffffffffffffffffffffff1681526020016003820160149054906101000a900461ffff1661ffff1661ffff1681526020016003820160169054906101000a900461ffff1661ffff1661ffff16815260200160048201548152602001600582016040518060400160405290816000820160009054906101000a900473ffffffffffffffffffffffffffffffffffffffff1673ffffffffffffffffffffffffffffffffffffffff1673ffffffffffffffffffffffffffffffffffffffff16815260200160018201548152505081525050828281518110610594577f4e487b7100000000000000000000000000000000000000000000000000000000600052603260045260246000fd5b602002602001018190525080806105aa90612cbe565b91505061037f565b50809250505090565b60006105c5611df0565b905090565b60006105d582611dd4565b6040518061010001604052908160008201548152602001600182015481526020016002820160009054906101000a900473ffffffffffffffffffffffffffffffffffffffff1673ffffffffffffffffffffffffffffffffffffffff1673ffffffffffffffffffffffffffffffffffffffff1681526020016003820160009054906101000a900473ffffffffffffffffffffffffffffffffffffffff1673ffffffffffffffffffffffffffffffffffffffff1673ffffffffffffffffffffffffffffffffffffffff1681526020016003820160149054906101000a900461ffff1661ffff1661ffff1681526020016003820160169054906101000a900461ffff1661ffff1661ffff16815260200160048201548152602001600582016040518060400160405290816000820160009054906101000a900473ffffffffffffffffffffffffffffffffffffffff1673ffffffffffffffffffffffffffffffffffffffff1673ffffffffffffffffffffffffffffffffffffffff1681526020016001820154815250508152505090506000816000015114156107a9576040517f08c379a00000000000000000000000000000000000000000000000000000000081526004016107a09061297b565b60405180910390fd5b806040015173ffffffffffffffffffffffffffffffffffffffff166342842e0e8260e0015160000151836060015184602001516040518463ffffffff1660e01b81526004016107fa9392919061280b565b600060405180830381600087803b15801561081457600080fd5b505af1158015610828573d6000803e3d6000fd5b5050505060008160e001516000015173ffffffffffffffffffffffffffffffffffffffff168260c0015160405161085e906127f6565b60006040518083038185875af1925050503d806000811461089b576040519150601f19603f3d011682016040523d82523d6000602084013e6108a0565b606091505b50509050806108e4576040517f08c379a00000000000000000000000000000000000000000000000000000000081526004016108db90612a1b565b60405180910390fd5b60008260e0015160200151426108fa9190612be9565b9050600061091061090a86611dd4565b83611e01565b905083606001515061092185611e56565b5050505050565b60606000805b6109386002611f4a565b811015610b4857600061095d610958836002611f5f90919063ffffffff16565b611dd4565b6040518061010001604052908160008201548152602001600182015481526020016002820160009054906101000a900473ffffffffffffffffffffffffffffffffffffffff1673ffffffffffffffffffffffffffffffffffffffff1673ffffffffffffffffffffffffffffffffffffffff1681526020016003820160009054906101000a900473ffffffffffffffffffffffffffffffffffffffff1673ffffffffffffffffffffffffffffffffffffffff1673ffffffffffffffffffffffffffffffffffffffff1681526020016003820160149054906101000a900461ffff1661ffff1661ffff1681526020016003820160169054906101000a900461ffff1661ffff1661ffff16815260200160048201548152602001600582016040518060400160405290816000820160009054906101000a900473ffffffffffffffffffffffffffffffffffffffff1673ffffffffffffffffffffffffffffffffffffffff1673ffffffffffffffffffffffffffffffffffffffff1681526020016001820154815250508152505090503373ffffffffffffffffffffffffffffffffffffffff168160e001516000015173ffffffffffffffffffffffffffffffffffffffff161415610b34578280610b3090612cbe565b9350505b508080610b4090612cbe565b91505061092e565b5060008167ffffffffffffffff811115610b8b577f4e487b7100000000000000000000000000000000000000000000000000000000600052604160045260246000fd5b604051908082528060200260200182016040528015610bc457816020015b610bb16122aa565b815260200190600190039081610ba95790505b5090506000805b610bd56002611f4a565b811015610e2a576000610bfa610bf5836002611f5f90919063ffffffff16565b611dd4565b6040518061010001604052908160008201548152602001600182015481526020016002820160009054906101000a900473ffffffffffffffffffffffffffffffffffffffff1673ffffffffffffffffffffffffffffffffffffffff1673ffffffffffffffffffffffffffffffffffffffff1681526020016003820160009054906101000a900473ffffffffffffffffffffffffffffffffffffffff1673ffffffffffffffffffffffffffffffffffffffff1673ffffffffffffffffffffffffffffffffffffffff1681526020016003820160149054906101000a900461ffff1661ffff1661ffff1681526020016003820160169054906101000a900461ffff1661ffff1661ffff16815260200160048201548152602001600582016040518060400160405290816000820160009054906101000a900473ffffffffffffffffffffffffffffffffffffffff1673ffffffffffffffffffffffffffffffffffffffff1673ffffffffffffffffffffffffffffffffffffffff1681526020016001820154815250508152505090503373ffffffffffffffffffffffffffffffffffffffff168160e001516000015173ffffffffffffffffffffffffffffffffffffffff161415610e165780848481518110610dfc577f4e487b7100000000000000000000000000000000000000000000000000000000600052603260045260246000fd5b60200260200101819052508280610e1290612cbe565b9350505b508080610e2290612cbe565b915050610bcb565b5081935050505090565b610e3d81611f79565b610e7c576040517f08c379a0000000000000000000000000000000000000000000000000000000008152600401610e739061293b565b60405180910390fd5b6000610e8782611dd4565b90506000816005016001015414610ed3576040517f08c379a0000000000000000000000000000000000000000000000000000000008152600401610eca906129bb565b60405180910390fd5b3373ffffffffffffffffffffffffffffffffffffffff168160030160009054906101000a900473ffffffffffffffffffffffffffffffffffffffff1673ffffffffffffffffffffffffffffffffffffffff161415610f66576040517f08c379a0000000000000000000000000000000000000000000000000000000008152600401610f5d9061291b565b60405180910390fd5b6000610f7182611f96565b9050803414610fb5576040517f08c379a0000000000000000000000000000000000000000000000000000000008152600401610fac90612a3b565b60405180910390fd5b338260050160000160006101000a81548173ffffffffffffffffffffffffffffffffffffffff021916908373ffffffffffffffffffffffffffffffffffffffff16021790555042826005016001018190555060008260020160009054906101000a900473ffffffffffffffffffffffffffffffffffffffff1690508073ffffffffffffffffffffffffffffffffffffffff166342842e0e8460030160009054906101000a900473ffffffffffffffffffffffffffffffffffffffff163386600101546040518463ffffffff1660e01b815260040161109593929190612842565b600060405180830381600087803b1580156110af57600080fd5b505af11580156110c3573d6000803e3d6000fd5b5050505050505050565b60606000805b6110dd6002611f4a565b8110156112e95760006111026110fd836002611f5f90919063ffffffff16565b611dd4565b6040518061010001604052908160008201548152602001600182015481526020016002820160009054906101000a900473ffffffffffffffffffffffffffffffffffffffff1673ffffffffffffffffffffffffffffffffffffffff1673ffffffffffffffffffffffffffffffffffffffff1681526020016003820160009054906101000a900473ffffffffffffffffffffffffffffffffffffffff1673ffffffffffffffffffffffffffffffffffffffff1673ffffffffffffffffffffffffffffffffffffffff1681526020016003820160149054906101000a900461ffff1661ffff1661ffff1681526020016003820160169054906101000a900461ffff1661ffff1661ffff16815260200160048201548152602001600582016040518060400160405290816000820160009054906101000a900473ffffffffffffffffffffffffffffffffffffffff1673ffffffffffffffffffffffffffffffffffffffff1673ffffffffffffffffffffffffffffffffffffffff1681526020016001820154815250508152505090503373ffffffffffffffffffffffffffffffffffffffff16816060015173ffffffffffffffffffffffffffffffffffffffff1614156112d55782806112d190612cbe565b9350505b5080806112e190612cbe565b9150506110d3565b5060008167ffffffffffffffff81111561132c577f4e487b7100000000000000000000000000000000000000000000000000000000600052604160045260246000fd5b60405190808252806020026020018201604052801561136557816020015b6113526122aa565b81526020019060019003908161134a5790505b5090506000805b6113766002611f4a565b8110156115c757600061139b611396836002611f5f90919063ffffffff16565b611dd4565b6040518061010001604052908160008201548152602001600182015481526020016002820160009054906101000a900473ffffffffffffffffffffffffffffffffffffffff1673ffffffffffffffffffffffffffffffffffffffff1673ffffffffffffffffffffffffffffffffffffffff1681526020016003820160009054906101000a900473ffffffffffffffffffffffffffffffffffffffff1673ffffffffffffffffffffffffffffffffffffffff1673ffffffffffffffffffffffffffffffffffffffff1681526020016003820160149054906101000a900461ffff1661ffff1661ffff1681526020016003820160169054906101000a900461ffff1661ffff1661ffff16815260200160048201548152602001600582016040518060400160405290816000820160009054906101000a900473ffffffffffffffffffffffffffffffffffffffff1673ffffffffffffffffffffffffffffffffffffffff1673ffffffffffffffffffffffffffffffffffffffff1681526020016001820154815250508152505090503373ffffffffffffffffffffffffffffffffffffffff16816060015173ffffffffffffffffffffffffffffffffffffffff1614156115b35780848481518110611599577f4e487b7100000000000000000000000000000000000000000000000000000000600052603260045260246000fd5b602002602001018190525082806115af90612cbe565b9350505b5080806115bf90612cbe565b91505061136c565b5081935050505090565b60006115dc82611dd4565b9050611771816040518061010001604052908160008201548152602001600182015481526020016002820160009054906101000a900473ffffffffffffffffffffffffffffffffffffffff1673ffffffffffffffffffffffffffffffffffffffff1673ffffffffffffffffffffffffffffffffffffffff1681526020016003820160009054906101000a900473ffffffffffffffffffffffffffffffffffffffff1673ffffffffffffffffffffffffffffffffffffffff1673ffffffffffffffffffffffffffffffffffffffff1681526020016003820160149054906101000a900461ffff1661ffff1661ffff1681526020016003820160169054906101000a900461ffff1661ffff1661ffff16815260200160048201548152602001600582016040518060400160405290816000820160009054906101000a900473ffffffffffffffffffffffffffffffffffffffff1673ffffffffffffffffffffffffffffffffffffffff1673ffffffffffffffffffffffffffffffffffffffff16815260200160018201548152505081525050611986565b3373ffffffffffffffffffffffffffffffffffffffff168160030160009054906101000a900473ffffffffffffffffffffffffffffffffffffffff1673ffffffffffffffffffffffffffffffffffffffff1614611803576040517f08c379a00000000000000000000000000000000000000000000000000000000081526004016117fa9061299b565b60405180910390fd5b6000620151808260030160149054906101000a900461ffff1661ffff1661182a9190612b52565b62ffffff1682600501600101546118419190612acb565b905080421015611886576040517f08c379a000000000000000000000000000000000000000000000000000000000815260040161187d906128fb565b60405180910390fd5b600061189183611f96565b905061189c84611e56565b60003373ffffffffffffffffffffffffffffffffffffffff16826040516118c2906127f6565b60006040518083038185875af1925050503d80600081146118ff576040519150601f19603f3d011682016040523d82523d6000602084013e611904565b606091505b5050905080611948576040517f08c379a000000000000000000000000000000000000000000000000000000000815260040161193f906129fb565b60405180910390fd5b7ff4b6d8e6d67e89eda2471635f9ba22585be1274f88e88143a6f0454aff128c15856040516119779190612a5b565b60405180910390a15050505050565b6000816020015114156119ce576040517f08c379a00000000000000000000000000000000000000000000000000000000081526004016119c5906128db565b60405180910390fd5b600073ffffffffffffffffffffffffffffffffffffffff16816040015173ffffffffffffffffffffffffffffffffffffffff161415611a42576040517f08c379a0000000000000000000000000000000000000000000000000000000008152600401611a399061295b565b60405180910390fd5b6000816080015161ffff1611611a8d576040517f08c379a0000000000000000000000000000000000000000000000000000000008152600401611a84906128bb565b60405180910390fd5b60008160a0015161ffff1611611ad8576040517f08c379a0000000000000000000000000000000000000000000000000000000008152600401611acf906129db565b60405180910390fd5b60008160c0015111611b1f576040517f08c379a0000000000000000000000000000000000000000000000000000000008152600401611b169061289b565b60405180910390fd5b50565b6000806000815480929190611b3690612cbe565b91905055826000018181525050816001600084600001518152602001908152602001600020600082015181600001556020820151816001015560408201518160020160006101000a81548173ffffffffffffffffffffffffffffffffffffffff021916908373ffffffffffffffffffffffffffffffffffffffff16021790555060608201518160030160006101000a81548173ffffffffffffffffffffffffffffffffffffffff021916908373ffffffffffffffffffffffffffffffffffffffff16021790555060808201518160030160146101000a81548161ffff021916908361ffff16021790555060a08201518160030160166101000a81548161ffff021916908361ffff16021790555060c0820151816004015560e08201518160050160008201518160000160006101000a81548173ffffffffffffffffffffffffffffffffffffffff021916908373ffffffffffffffffffffffffffffffffffffffff160217905550602082015181600101555050905050611cc482600001516002611fe190919063ffffffff16565b5081600001519050919050565b60606000611cdf6002611f4a565b905060008167ffffffffffffffff811115611d23577f4e487b7100000000000000000000000000000000000000000000000000000000600052604160045260246000fd5b604051908082528060200260200182016040528015611d515781602001602082028036833780820191505090505b50905060005b82811015611dcb57611d73816002611f5f90919063ffffffff16565b828281518110611dac577f4e487b7100000000000000000000000000000000000000000000000000000000600052603260045260246000fd5b6020026020010181815250508080611dc390612cbe565b915050611d57565b50809250505090565b6000600160008381526020019081526020016000209050919050565b6000611dfc6002611f4a565b905090565b60006064620151808385600401548660030160169054906101000a900461ffff1661ffff16611e309190612b8f565b611e3a9190612b8f565b611e449190612b21565b611e4e9190612b21565b905092915050565b6001600082815260200190815260200160002060008082016000905560018201600090556002820160006101000a81549073ffffffffffffffffffffffffffffffffffffffff02191690556003820160006101000a81549073ffffffffffffffffffffffffffffffffffffffff02191690556003820160146101000a81549061ffff02191690556003820160166101000a81549061ffff0219169055600482016000905560058201600080820160006101000a81549073ffffffffffffffffffffffffffffffffffffffff0219169055600182016000905550505050611f46816002611ffb90919063ffffffff16565b5050565b6000611f5882600001612015565b9050919050565b6000611f6e8360000183612026565b60001c905092915050565b6000611f8f82600261207790919063ffffffff16565b9050919050565b6000611fcb82620151808460030160149054906101000a900461ffff1661ffff16611fc19190612b52565b62ffffff16611e01565b8260040154611fda9190612acb565b9050919050565b6000611ff3836000018360001b612091565b905092915050565b600061200d836000018360001b612101565b905092915050565b600081600001805490509050919050565b6000826000018281548110612064577f4e487b7100000000000000000000000000000000000000000000000000000000600052603260045260246000fd5b9060005260206000200154905092915050565b6000612089836000018360001b612287565b905092915050565b600061209d8383612287565b6120f65782600001829080600181540180825580915050600190039060005260206000200160009091909190915055826000018054905083600101600084815260200190815260200160002081905550600190506120fb565b600090505b92915050565b6000808360010160008481526020019081526020016000205490506000811461227b5760006001826121339190612be9565b905060006001866000018054905061214b9190612be9565b9050818114612206576000866000018281548110612192577f4e487b7100000000000000000000000000000000000000000000000000000000600052603260045260246000fd5b90600052602060002001549050808760000184815481106121dc577f4e487b7100000000000000000000000000000000000000000000000000000000600052603260045260246000fd5b90600052602060002001819055508387600101600083815260200190815260200160002081905550505b85600001805480612240577f4e487b7100000000000000000000000000000000000000000000000000000000600052603160045260246000fd5b600190038181906000526020600020016000905590558560010160008681526020019081526020016000206000905560019350505050612281565b60009150505b92915050565b600080836001016000848152602001908152602001600020541415905092915050565b6040518061010001604052806000815260200160008152602001600073ffffffffffffffffffffffffffffffffffffffff168152602001600073ffffffffffffffffffffffffffffffffffffffff168152602001600061ffff168152602001600061ffff16815260200160008152602001612323612329565b81525090565b6040518060400160405280600073ffffffffffffffffffffffffffffffffffffffff168152602001600081525090565b600081359050612368816130fc565b92915050565b60008135905061237d81613113565b92915050565b6000813590506123928161312a565b92915050565b6000602082840312156123aa57600080fd5b60006123b884828501612383565b91505092915050565b600080600080600060a086880312156123d957600080fd5b60006123e788828901612383565b95505060206123f888828901612359565b94505060406124098882890161236e565b935050606061241a8882890161236e565b925050608061242b88828901612383565b9150509295509295909350565b600061244483836126f8565b6101208301905092915050565b61245a81612c88565b82525050565b61246981612c2f565b82525050565b61247881612c1d565b82525050565b61248781612c1d565b82525050565b600061249882612a86565b6124a28185612a9e565b93506124ad83612a76565b8060005b838110156124de5781516124c58882612438565b97506124d083612a91565b9250506001810190506124b1565b5085935050505092915050565b60006124f8602e83612aba565b915061250382612d65565b604082019050919050565b600061251b602c83612aba565b915061252682612db4565b604082019050919050565b600061253e602c83612aba565b915061254982612e03565b604082019050919050565b6000612561602b83612aba565b915061256c82612e52565b604082019050919050565b6000612584601a83612aba565b915061258f82612ea1565b602082019050919050565b60006125a7601683612aba565b91506125b282612eca565b602082019050919050565b60006125ca603183612aba565b91506125d582612ef3565b604082019050919050565b60006125ed601183612aba565b91506125f882612f42565b602082019050919050565b6000612610602883612aba565b915061261b82612f6b565b604082019050919050565b6000612633601883612aba565b915061263e82612fba565b602082019050919050565b6000612656603783612aba565b915061266182612fe3565b604082019050919050565b6000612679602883612aba565b915061268482613032565b604082019050919050565b600061269c600083612aaf565b91506126a782613081565b600082019050919050565b60006126bf602a83612aba565b91506126ca82613084565b604082019050919050565b60006126e2601b83612aba565b91506126ed826130d3565b602082019050919050565b6101208201600082015161270f60008501826127d8565b50602082015161272260208501826127d8565b506040820151612735604085018261246f565b5060608201516127486060850182612460565b50608082015161275b60808501826127c9565b5060a082015161276e60a08501826127c9565b5060c082015161278160c08501826127d8565b5060e082015161279460e085018261279a565b50505050565b6040820160008201516127b06000850182612460565b5060208201516127c360208501826127d8565b50505050565b6127d281612c41565b82525050565b6127e181612c7e565b82525050565b6127f081612c7e565b82525050565b60006128018261268f565b9150819050919050565b60006060820190506128206000830186612451565b61282d6020830185612451565b61283a60408301846127e7565b949350505050565b60006060820190506128576000830186612451565b612864602083018561247e565b61287160408301846127e7565b949350505050565b60006020820190508181036000830152612893818461248d565b905092915050565b600060208201905081810360008301526128b4816124eb565b9050919050565b600060208201905081810360008301526128d48161250e565b9050919050565b600060208201905081810360008301526128f481612531565b9050919050565b6000602082019050818103600083015261291481612554565b9050919050565b6000602082019050818103600083015261293481612577565b9050919050565b600060208201905081810360008301526129548161259a565b9050919050565b60006020820190508181036000830152612974816125bd565b9050919050565b60006020820190508181036000830152612994816125e0565b9050919050565b600060208201905081810360008301526129b481612603565b9050919050565b600060208201905081810360008301526129d481612626565b9050919050565b600060208201905081810360008301526129f481612649565b9050919050565b60006020820190508181036000830152612a148161266c565b9050919050565b60006020820190508181036000830152612a34816126b2565b9050919050565b60006020820190508181036000830152612a54816126d5565b9050919050565b6000602082019050612a7060008301846127e7565b92915050565b6000819050602082019050919050565b600081519050919050565b6000602082019050919050565b600082825260208201905092915050565b600081905092915050565b600082825260208201905092915050565b6000612ad682612c7e565b9150612ae183612c7e565b9250827fffffffffffffffffffffffffffffffffffffffffffffffffffffffffffffffff03821115612b1657612b15612d07565b5b828201905092915050565b6000612b2c82612c7e565b9150612b3783612c7e565b925082612b4757612b46612d36565b5b828204905092915050565b6000612b5d82612c6f565b9150612b6883612c6f565b92508162ffffff0483118215151615612b8457612b83612d07565b5b828202905092915050565b6000612b9a82612c7e565b9150612ba583612c7e565b9250817fffffffffffffffffffffffffffffffffffffffffffffffffffffffffffffffff0483118215151615612bde57612bdd612d07565b5b828202905092915050565b6000612bf482612c7e565b9150612bff83612c7e565b925082821015612c1257612c11612d07565b5b828203905092915050565b6000612c2882612c4f565b9050919050565b6000612c3a82612c4f565b9050919050565b600061ffff82169050919050565b600073ffffffffffffffffffffffffffffffffffffffff82169050919050565b600062ffffff82169050919050565b6000819050919050565b6000612c9382612c9a565b9050919050565b6000612ca582612cac565b9050919050565b6000612cb782612c4f565b9050919050565b6000612cc982612c7e565b91507fffffffffffffffffffffffffffffffffffffffffffffffffffffffffffffffff821415612cfc57612cfb612d07565b5b600182019050919050565b7f4e487b7100000000000000000000000000000000000000000000000000000000600052601160045260246000fd5b7f4e487b7100000000000000000000000000000000000000000000000000000000600052601260045260246000fd5b7f76616c69646174654c697374696e674e46543a3a20436f6c6c61746572616c2060008201527f63616e6e6f74206265207a65726f000000000000000000000000000000000000602082015250565b7f76616c69646174654c697374696e674e46543a3a204475726174696f6e20636160008201527f6e6e6f74206265207a65726f0000000000000000000000000000000000000000602082015250565b7f76616c69646174654c697374696e674e46543a3a20546f6b656e49642063616e60008201527f6e6f7420626520656d7074790000000000000000000000000000000000000000602082015250565b7f63616e6e6f74207465726d696e6174652072656e74616c20746861742069732060008201527f6e6f742079657420647565000000000000000000000000000000000000000000602082015250565b7f63616e6e6f742072656e7420796f7572206f776e20746f6b656e000000000000600082015250565b7f6c697374696e6720646f6573206e6f7420657869737400000000000000000000600082015250565b7f76616c69646174654c697374696e674e46543a3a20546f6b656e41646472657360008201527f732063616e6e6f7420626520656d707479000000000000000000000000000000602082015250565b7f496e76616c6964206c697374696e674964000000000000000000000000000000600082015250565b7f6f6e6c7920746865206c656e6465722063616e207465726d696e61746520746860008201527f652072656e74616c000000000000000000000000000000000000000000000000602082015250565b7f6e6f7420616e20617661696c61626c65206c697374696e670000000000000000600082015250565b7f76616c69646174654c697374696e674e46543a3a204461696c7920696e74657260008201527f65737420726174652063616e6e6f74206265207a65726f000000000000000000602082015250565b7f6661696c656420746f2073656e6420636f6c6c61746572616c206261636b207460008201527f6f206c656e646572000000000000000000000000000000000000000000000000602082015250565b50565b7f6661696c656420746f2073656e6420636f6c6c61746572616c206261636b207460008201527f6f20626f72726f77657200000000000000000000000000000000000000000000602082015250565b7f6d7573742073656e6420746865206578616374207061796d656e740000000000600082015250565b61310581612c1d565b811461311057600080fd5b50565b61311c81612c41565b811461312757600080fd5b50565b61313381612c7e565b811461313e57600080fd5b5056fea2646970667358221220068a6b68111207fa0b0c854a41a572a2fbe8acbfa65fb5a457a2e45f425a62c464736f6c63430008040033",
  "linkReferences": {},
  "deployedLinkReferences": {}
}